:02000002D0002C
:1040000000400D000C590D00000005000C000501DA
:0840100004014601000000005C
:10401800AC550D0009480A49884208B505D0094A37
:10402800824202D0121A01F097FA0748074A002183
:10403800121A01F09CFA014808BD00BFC4E303202E
:10404800E0580D00C8E30320C8E30320F0E703208D
:1040580070B501F071F8074C074BE41AA408002565
:104068001E46A54204D056F8253098470135F8E792
:1040780070BD00BFD8580D00A0580D0000F022B93F
:1040880008B500F095F9BDE8084001F023B800F044
:1040980067BB00F065BB0078B0FA80F04009704754
:1040A800012303707047000038B52949054600F020
:1040B800B4FE0446F8B100210F2001F082F89620E2
:1040C80000F05EFB00210E2001F07BF8962000F046
:1040D80057FB01210D2001F074F84FF4FA7000F03D
:1040E8004FFB00210D2001F06CF800210E2001F09B
:1040F80068F8002123E01749284600F08EFE18B31F
:1041080001210F2001F05DF8962000F039FB2146CF
:104118000E2001F056F8962000F032FB01210D2008
:1041280001F04FF84FF4FA7000F02AFB21460D20F9
:1041380001F047F821460E2001F043F821460F20F0
:1041480001F03FF8012038BD4FF0FF3038BD00BF07
:10415800DB560D00C0550D0038B52949054600F05D
:104168005CFE0446F8B100210F2001F02AF89620E1
:1041780000F006FB01210E2001F023F8962000F044
:10418800FFFA01210D2001F01CF84FF4FA7000F03D
:10419800F7FA00210D2001F014F800210E2001F09B
:1041A80010F8002123E01749284600F036FE18B31E
:1041B80001210F2001F005F8962000F0E1FA012115
:1041C8000E2000F0FEFF962000F0DAFA01210D2003
:1041D80000F0F7FF4FF4FA7000F0D2FA21460D20F4
:1041E80000F0EFFF21460E2000F0EBFF21460F20E4
:1041F80000F0E7FF012038BD4FF0FF3038BD00BFA9
:10420800DB560D00C0550D0038B51349054600F0C2
:1042180004FE044650B101210F2000F0D2FF012115
:104228000E2000F0CEFF01210D200EE00B4928469C
:1042380000F0F3FD68B121460D2000F0C2FF2146D1
:104248000E2000F0BEFF21460F2000F0BAFF01202B
:1042580038BD4FF0FF3038BDDB560D00C0550D009E
:104268002DE9F043814695B014460D4621B1084624
:1042780001F08FF9074600E00F4624B1204601F00F
:1042880088F9064600E026464FF04C0842460021D1
:1042980001A801F06CF903238DF81830002301AA56
:1042A8001946D9F80400CDF80480029503970494C0
:1042B800059600F03DFAB0FA80F0400915B0BDE867
:1042C800F083000070B52A4D2A4C2B492B4E2A4604
:1042D8002046FFF7C5FF2A4629492046FFF7C0FFB9
:1042E8002A462849284D2046FFF7BAFF00233146C1
:1042F8000122264800F0C4F9254A26492846002408
:1043080000F060FA0221052000F04AFF3470224EC6
:10431800224823463146012200F0B2F9204A2149B9
:10432800284600F04FFA0221062000F039FF01214B
:104338000D20347000F034FF01210E2000F030FF12
:1043480001210F2000F02CFF21460D2000F039FF3D
:1043580021460E2000F035FF21460F2000F031FFE6
:104368002846114A1149BDE8704000F02BBA00BF39
:10437800C2550D0008E70320CD550D00CDE30320FD
:10438800D1550D00D5550D00A1470D00DF550D0085
:10439800E8550D00B1400D00CCE30320F2550D00A7
:1043A800FC550D0061410D0007560D0011420D002E
:1043B80008B5052000F01EFF084B012814BF002295
:1043C80018704FF0060018BF1A7000F013FF044B66
:1043D800012816BF002218701A7008BDCDE303200B
:1043E800CCE3032000F030B808B5024B1B689B688B
:1043F800019308BD4802030008B5024B1B681B69FE
:10440800019308BD4802030008B5024B1B685B69AD
:10441800019308BD4802030008B5024B1B681B6BDB
:10442800019308BD4802030008B5024B1B685B6C8A
:10443800019308BD4802030008B5024B1B685B697D
:10444800019308BD1802030008B5024B1B681B68DE
:10445800019308BD2C02030008B5024B1B689B683A
:10446800019308BD2C02030008B5024B1B68DB68EA
:10447800019308BD2C02030008B5024B1B681B6999
:10448800019308BD2C02030008B5024B1B685B6949
:10449800019308BD2C02030008B5024B1B681B6A78
:1044A800019308BD2802030008B5024B1B685B6A2C
:1044B800019308BD2802030008B5024B1B689B6ADC
:1044C800019308BD2802030008B5024B1B68DB6A8C
:1044D800019308BD2802030008B5024B1B681B6B3B
:1044E800019308BD2802030008B5024B1B685B6BEB
:1044F800019308BD2802030008B5024B1B681B6C1A
:10450800019308BD2802030008B5024B1B685B69CC
:10451800019308BD6402030008B5024B1B689B6841
:10452800019308BD6802030008B5024B1B68DB68ED
:10453800019308BD6802030008B5024B1B68DB69DC
:10454800019308BD3002030008B5024B1B681B6AC3
:10455800019308BD3002030008B5024B1B681B68B5
:10456800019308BD3C02030008B5024B1B68DB68D9
:10457800019308BD3C02030008B5024B1B681B6988
:10458800019308BD3C02030008B5024B1B685B6938
:10459800019308BD3C02030008B5024B1B689B69E8
:1045A800019308BD3C02030008B5024B1B68DB6998
:1045B800019308BD3C02030008B5024B1B681B6A47
:1045C800019308BD3C02030008B5024B1B689B6AB7
:1045D800019308BD3C02030008B5024B1B681B6829
:1045E800019308BD4C02030008B5024B1B681B6908
:1045F800019308BD4C02030008B5024B1B685B69B8
:10460800019308BD4C02030008B5024B1B689B6967
:10461800019308BD4C02030008B5024B1B68DB6917
:10462800019308BD4C02030008B5024B1B681B6AC6
:10463800019308BD4C02030008B5024B1B685B6878
:10464800019308BD2002030008B5024B1B685B6993
:10465800019308BD2002030008B5034B1B68D3F87B
:104668008830019308BD00002002030008B5034B01
:104678001B68D3F89430019308BD000020020300A2
:1046880008B5024B1B681B68019308BD4402030070
:1046980008B5024B1B685B68019308BD4402030020
:1046A80008B5024B1B68DB6B019308BD440203008D
:1046B80008B5024B1B685B68019308BD4002030004
:1046C80008B5024B1B689B68019308BD40020300B4
:1046D80008B5024B1B68DB68019308BD4002030064
:1046E80008B5024B1B681B69019308BD4002030013
:1046F80008B5024B1B685B69019308BD40020300C3
:1047080008B5024B1B689B69019308BD4002030072
:1047180008B5024B1B68DB69019308BD4002030022
:1047280008B5024B1B681B6A019308BD40020300D1
:1047380008B5024B1B689B6A019308BD4002030041
:1047480008B5024B1B681B6B019308BD40020300B0
:1047580008B5024B1B685B6B019308BD4002030060
:1047680008B5024B1B685B68019308BD1C02030077
:1047780008B5024B1B689B68019308BD1C02030027
:104788000021FFF761BF10B58368044613B1032207
:1047980001469847204610BD10B588B004466846C3
:1047A80000F00EFB694604A800F02CFB04A8A04703
:1047B800044604A800F0BDFA684600F0BAFA20469C
:1047C80008B010BDF0B5102485B007460E46154652
:1047D80000212246684600F0CAFE002269461046BB
:1047E800ADF80040029703960195FFF751FF05B019
:1047F800F0BD002211464068FFF792BF0022114623
:104808004068FFF7A5BF00224068FFF799BF002264
:1048180081F001014068FFF77BBF00231A46194663
:104828004068FFF76DBF00231A4619464068FFF736
:104838005FBF002211464068FFF752BF00221146B1
:104848004068FFF73DBF002202214068FFF740BFE4
:1048580000231A464068FFF72BBF0000024B0322D3
:104868005A60024A1A607047D0E303201C560D00B4
:104878007047F8B5064615460C468F18BC4206D058
:10488800336814F8011B9B6830469847F6E72846BA
:10489800F8BD0022007CFFF7FFBD0021007CFFF778
:1048A80003BE0021007CFFF707BE0021007CFFF754
:1048B8000BBE0021007CFFF70FBE10B50446FFF7C2
:1048C800E6FB204610BD000010B504464FF47A738D
:1048D8000846A3600021044B207461602360FFF741
:1048E8000BFE204610BD00BF50560D000021007C75
:1048F800FFF7FABD704710B50446FFF7C8FB20461E
:1049080010BDF0B5037D062B8DB00E4600F10407EF
:104918004FF0000402D000F1080518E00CAD39464C
:1049280005F8304D2F232A460A20FFF7EDFD2846CB
:1049380000F02FFE33680246DB6829463046984768
:104948000FE024B12E21304600F08EF9044415F80A
:10495800011D0A22304600F0B7F9BD420444F0D1E7
:1049680020460DB0F0BD000010B5054B04461122DD
:1049780040F8043B002100F0FAFD204610BD00BFBE
:1049880078560D000346074A10B543F8042B01F189
:10499800100251F8044B43F8044B9142F9D10A78BC
:1049A8001A7010BD78560D0010B59DF8084044EAFD
:1049B800032343EA024242EA01610423416003758A
:1049C80010BD37B50D788B784A78C978009129469B
:1049D800FFF7EAFF03B030BD014B024A1A60704787
:1049E800D8E303203C570D00002211464068FFF72A
:1049F80097BE002211464068FFF7AABE0022406811
:104A0800FFF79EBE002281F001014068FFF780BEDB
:104A180000231A4619464068FFF772BE00231A465B
:104A280019464068FFF764BE002211464068FFF748
:104A380057BE002211464068FFF742BE00220221FD
:104A48004068FFF745BE00231A464068FFF730BEAE
:104A580010B103685B681847704738B504460068AA
:104A6800D0B1FFF7C1FCB8B9237C1BB9206808B1E5
:104A7800FFF7C2FC656855B1AB681BB10322294634
:104A8800284698472846FFF702FB00236360206802
:104A9800FFF7BAFC0023236038BD000038B50B4B84
:104AA80003600446D0F8CC0108B1FFF7F2FAD4F855
:104AB800C4512DB12846FFF7D0FF2846FFF7E7FA83
:104AC800A06808B1FFF7C4FF204638BD70570D0035
:104AD80038B50D4C0D4B23600025022304F5E47016
:104AE8006360A560C4F8C451C4F8C851FFF79CFCC2
:104AF800074BC4F8CC5123602046064A0649BDE856
:104B0800384000F0CDBB00BFDCE30320A4570D0004
:104B180070570D00C8E30320A54A0D0000231A466C
:104B28004068FFF7C5BD002202214068FFF7D0BDED
:104B3800002211464068FFF7C3BD002211464068B5
:104B4800FFF7CEBD00231A4619464068FFF7D0BDCF
:104B580000231A4619464068FFF7D2BD002281F0AB
:104B680001014068FFF7D4BD00224068FFF7E8BDA7
:104B7800002211464068FFF7EBBD0022114640684D
:104B8800FFF7CEBD70B58CB014460646FFF7ECFEB5
:104B98000CAB0022114643F8302D2046FFF7C4FC29
:104BA800014658BB009B4BB35A68022A0ED00A2A0A
:104BB80024D15C69112201A800F0D9FC06238DF8E4
:104BC800143001AD04F10803183405E05969304682
:104BD8000431FFF7F6FE11E0186859682A4603C247
:104BE8000833A3421546F7D101A906A807ADFFF778
:104BF800C9FE0FCD341D0FC42B6823700098FFF732
:104C08008BFC30460CB070BD024B034A1A60002280
:104C18005A607047ACE50320A4570D00F8B5064666
:104C28000D468F180024BD420CD0336815F8011BBF
:104C38009B6830469847002801DB0444F3E7002CC2
:104C480008BF04462046F8BD70B505460C46084620
:104C580049B100F09EFC2B68024621462846DB68D5
:104C6800BDE87040184770BD03689B68184730B5A9
:104C78008BB00B4600218DF82410012A98BF0A2218
:104C88000DF12304B3FBF2F505FB123303F0FF0328
:104C9800092B94BF30333733DBB2214604F801398E
:104CA8002B46002DEED1FFF7CFFF0BB030BD10B46F
:104CB8002AB903685DF8044B9B68C9B21847D2B299
:104CC8005DF8044BFFF7D3BFFFF7F1BF10B50446FB
:104CD800FFF759FD204610BD0348044A0449002344
:104CE800836000F0DDBA00BFB4E50320C8E3032009
:104CF800D54C0D00704710B50446FFF7C8F920469B
:104D080010BD000070B5084B0360044600250E4630
:104D180040F80C5FFFF780FB30462671FFF70CFC6C
:104D2800A560204670BD00BFD8570D000079FFF779
:104D38000BBC10B504460068FFF712FD204610BDF5
:104D480010B50446006808B1FFF70AFD0023236088
:104D5800A360636010BD38B504460D460068013194
:104D6800FFF706FD10B184E82100012038BD10B519
:104D78000368044613B143688B4207D22046FFF705
:104D8800EAFF20B1A3680BB922681370012010BD97
:104D980070B50E46114604461546FFF7E8FF18B9E8
:104DA8002046FFF7CDFF09E02A463146A560206876
:104DB80000F0D2FB2268A3680021D154204670BDC0
:104DC80038B50023044603604360836003730D46CF
:104DD80039B1084600F0DDFB294602462046FFF7B8
:104DE800D7FF204638BD884210B50B46044607D089
:104DF800096819B19A68FFF7CBFF01E0FFF7A0FF38
:104E0800204610BD10B5002304460360436083604C
:104E18000373FFF7E8FF204610BD08B582680B460C
:104E280012B919B9012008BD11B90368187802E050
:104E3800006800F0A4FBB0FA80F0400908BD00004B
:104E4800054B4FF69C7200205A804FF6FF7218707F
:104E58009A80FFF7F1BB00BFC4E50320024B1A6834
:104E6800024B1A60704700BFC4E30320CCE503205F
:104E7800704741747047007CFFF7A6BB007CFFF7C2
:104E88007BBB007CFFF788BB007CFFF77DBB007C09
:104E9800FFF78ABB10B50446FFF7F9F8204610BDA6
:104EA80070B5457C04460E4625B9007CFFF78CFB9F
:104EB800002805DD3146207CBDE87040FFF754BB73
:104EC800284670BD10B504460846114600226260A7
:104ED8004FF47A72A260054A22600122207462743B
:104EE8001A46FFF739FB204610BD00BF14580D00C5
:104EF800007CFFF761BB000038B50C4D296811F044
:104F0800010411D12846FFF7C6F868B1084A094BD1
:104F180009482146FFF7D6FF2846FFF7C1F8074A98
:104F28000749054800F0BCF9034838BD68E6032086
:104F38006CE60320E4E50320D0E50320C8E3032062
:104F4800794E0D004174704770470021007CFFF7CF
:104F58005BBB0121007CFFF757BB007CFFF74CBB14
:104F6800007CFFF741BB38B50446007C0D46FFF7CF
:104F780043FB002801DC607C20B12946207CFFF738
:104F88004BFB012038BD007CFFF74EBB10B5044633
:104F9800FFF77DF8204610BD10B504460023636076
:104FA8004FF47A73A360054B2360012308462174EC
:104FB80063741146FFF710FB204610BD44580D00DE
:104FC80010B514220446002100F0D1FA204610BD85
:104FD80030B50E4D87B001A8FFF7F2FF296811F030
:104FE800010410D12846FFF756F860B101AA2146FE
:104FF8000748FFF7D1FF2846FFF752F8054A064948
:10500800034800F04DF9024807B030BDF0E6032030
:10501800F4E60320C8E30320514F0D000022114697
:105028004068FFF75DBB002211464068FFF778BB78
:10503800002211464068FFF78BBB00224068FFF74B
:105048007FBB002281F001014068FFF761BB0023AC
:105058001A4619464068FFF753BB00231A461946FB
:105068004068FFF745BB002211464068FFF728BBA0
:10507800002202214068FFF72BBB00231A46406834
:10508800FFF716BB024B04225A60024A1A607047A7
:1050980008E7032074580D0008B50C4B33B1FFF72F
:1050A80097FF03681B699847002809DC084B63B120
:1050B800FFF722FF03681B699847002803DC08BD37
:1050C800AFF30080F2E7AFF3008008BD00000000F6
:1050D8000000000008B5FFF7DFFFFFF7ADF9014B4F
:1050E800186008BD14E7032007B5002300931A468B
:1050F8006FF07701FFF7BAFA03B05DF804FB000020
:1051080007B543880A2B08D0502B09D1094B1B68D7
:105118003BB103B05DF804EB1847FFF7E5FF06E085
:10512800002300931A466FF07701FFF79FFA03B048
:105138005DF804FB10E7032008B500210448FFF7D9
:10514800AFFA00210348BDE80840FFF785BA00BF61
:105158000000000009510D0010B504460F48FFF784
:10516800E5FD28B1A4F10B03022B01D8002010BDE6
:1051780000F054F8FFF7BAFB08B1012CF6D9FFF795
:10518800BBFEFFF7B5FE18B1A4F10903012BEDD959
:10519800232C8CBF0020012010BD00BF30E7032066
:1051A800232838B504460D460AD8FF2908D0FFF74A
:1051B800D3FF28B129462046BDE83840FFF74CB94F
:1051C80038BD38B504460D46FFF74EF9FF2810D014
:1051D800062804D84D2323FA00F0C30709D4204633
:1051E800FFF7BAFF28B129462046BDE83840FFF747
:1051F80043B938BD10B50446FFF736F90438C0B2D4
:10520800012808D92046FFF7A7FF20B12046BDE8AE
:105218001040FFF739B9002010BD000038B50B4D1C
:10522800296811F001040FD12846FEF734FF58B160
:1052380021460748FFF748FB2846FEF731FF054A95
:105248000549034800F02CF8014838BD18E7032049
:105258001CE70320C8E3032079480D0070B50C4C07
:105268000C4E0D4D00212046FFF74CFD20460B4CFF
:105278003246294600F014F801212046FFF742FD86
:10528800324629462046BDE8704000F009B800BF04
:1052980030E70320C8E30320FD4C0D0040E703205E
:1052A8000B460146184600F049B90000244B1A681D
:1052B800D0075CBF01221A60224B1A68D1075CBF75
:1052C80001221A60204B1A68D2075CBF01221A60BB
:1052D8001E4B1A68D0075CBF01221A601C4B1A6863
:1052E800D1075CBF01221A601A4B1A68D2075CBF4B
:1052F80001221A60184B1A68D0075CBF01221A6095
:10530800164B1A68D1075CBF01221A60144B1A6841
:10531800D2075CBF01221A60124B1A68D0075CBF23
:1053280001221A60104B1A68D1075CBF01221A606B
:105338000E4B1A68D2075CBF01221A60704700BF83
:105348007CE7032078E7032074E7032070E7032055
:105358006CE7032068E7032064E7032060E7032085
:105368005CE7032058E7032054E7032050E70320B5
:10537800184B1A68D1075CBF01221A60164B1A68CD
:10538800D2075CBF01221A60144B1A68D0075CBFB1
:1053980001221A60124B1A68D1075CBF01221A60F9
:1053A800104B1A68D2075CBF01221A600E4B1A68AC
:1053B800D0075CBF01221A600C4B1A68D1075CBF8A
:1053C80001221A600A4B1A68D2075CBF01221A60D0
:1053D800704700BF9CE7032098E7032094E7032069
:1053E80090E703208CE7032088E7032084E7032065
:1053F80080E70320184B1A68D1075CBF01221A60A6
:10540800164B1A68D2075CBF01221A60144B1A683F
:10541800D0075CBF01221A60124B1A68D1075CBF23
:1054280001221A60104B1A68D2075CBF01221A6069
:105438000E4B1A68D0075CBF01221A600C4B1A6821
:10544800D1075CBF01221A600A4B1A68D2075CBFF9
:1054580001221A60704700BFBCE70320B8E70320A9
:10546800B4E70320B0E70320ACE70320A8E7032054
:10547800A4E70320A0E70320244B1A68D0075CBFE9
:1054880001221A60224B1A68D1075CBF01221A60F8
:10549800204B1A68D2075CBF01221A601E4B1A689B
:1054A800D0075CBF01221A601C4B1A68D1075CBF89
:1054B80001221A601A4B1A68D2075CBF01221A60CF
:1054C800184B1A68D0075CBF01221A60164B1A687D
:1054D800D1075CBF01221A60144B1A68D2075CBF5F
:1054E80001221A60124B1A68D0075CBF01221A60A9
:1054F800104B1A68D1075CBF01221A600E4B1A685C
:10550800D2075CBF01221A60704700BFECE7032096
:10551800E8E70320E4E70320E0E70320DCE70320D3
:10552800D8E70320D4E70320D0E70320CCE7032003
:10553800C8E70320C4E70320C0E7032010B5054CE3
:1055480013462CB10A4601460220AFF3008010BD75
:10555800204610BD0000000010B5431E0A449142C9
:1055680004D011F8014B03F8014FF8E710BD0244CD
:105578000346934202D003F8011BFAE7704710F87C
:10558800012B11F8013B012A28BF9A42F7D0D01A03
:105598007047034613F8012B002AFBD1181A01386B
:1055A800704700001D400D0059400D0085400D005A
:1055B80089400D0000000000300061626364656688
:1055C8003132333400474C460049485600504B535B
:1055D800686F704E6574006C6566746F70656E00F8
:1055E800746C656674646F6F720072696768746F53
:1055F80070656E00747269676874646F6F720074A6
:1056080065737452656C6179000000000000000049
:105618000000000059480D004F480D0045480D0096
:105628003B480D002F480D0023480D0017480D007A
:105638000F480D0005480D00FB470D008D4B0D0070
:10564800000000000000000079480D00C3480D006C
:105658009B480D007B480D00A3480D00AB480D008A
:10566800B3480D00BB480D0000000000000000001A
:105678000B490D00FD480D00FF480D0066006C6EDB
:1056880000666E00636F64650064657461696C0030
:105698000D0A00253031307520005D20002564009A
:1056A8002C200028293A2000205B00636F646520C5
:1056B8003D200025690064657461696C73203D2094
:1056C80000626175640053657269616C00536572AC
:1056D80069616C31007479706500706172616D0088
:1056E800636D6400696400686E64007374726D00B1
:1056F80066696C74006C766C0061646448616E6401
:105708006C65720072656D6F766548616E646C6574
:105718007200656E756D48616E646C657273004ADF
:10572800534F4E53747265616D4C6F6748616E6478
:105738006C657200617070006E6F6E6500747261E6
:10574800636500696E666F007761726E00657272DC
:105758006F720070616E696300616C6C000000001C
:1057680000000000000000004F4A0D00454A0D00EF
:105778003B4A0D00314A0D00254A0D00194A0D001B
:105788000D4A0D00054A0D00FB490D00F1490D00B9
:105798008D4B0D000000000000000000254B0D009F
:1057A8002F4B0D00394B0D00434B0D004D4B0D0099
:1057B800594B0D00654B0D00714B0D00794B0D00D9
:1057C800834B0D008D4B0D00000000000000000011
:1057D800FD4C0D00FF4C0D005A00252B3033643A68
:1057E800253032750025592D256D2D256454254801
:1057F8003A254D3A2553257A0061736374696D65BE
:10580800000000000000000000000000794E0D00BC
:105818009D4E0D00A94E0D00254C0D00854E0D0026
:10582800914E0D008B4E0D00974E0D007B4E0D00D6
:105838007F4E0D000000000000000000514F0D00D9
:10584800954F0D006F4F0D00254C0D00694F0D0051
:10585800534F0D005B4F0D008F4F0D00634F0D0030
:105868004D4F0D00000000000000000083500D00A7
:1058780079500D006F500D0025500D0063500D003C
:1058880057500D004B500D0043500D0039500D007E
:105898002F500D008D4B0D00ED430D0065480D0098
:1058A800E1490D00D94A0D00114C0D00E14C0D00E5
:1058B800494E0D00654E0D008D500D0065520D00CE
:1058C800B5520D0079530D00FD530D0081540D00A4
:0858D8000000000000000000C8
:0458E00001580D005E
:1058E400FFFFFFFF00000102030405060708090A81
:1058F4000B0C0D0E0F101112131415161718191A7C
:085904001B1C1D1E1F202800C2
:04590C007856341283
:04000003D0004018D1
:00000001FF
